:020000040800F2
:10000000000003205D06000801220008032200080A
:10001000052200080722000809220008000000004D
:100020000000000000000000000000000175000852
:100030000B2200080000000091750008216E0008E6
:10004000AD060008AD060008AD060008AD060008C4
:10005000AD060008AD060008AD060008AD060008B4
:10006000AD060008AD060008AD060008AD060008A4
:10007000AD060008AD060008AD060008AD06000894
:10008000AD060008AD060008AD060008AD06000884
:10009000AD060008AD060008AD060008AD06000874
:1000A000AD060008AD060008AD060008AD06000864
:1000B000AD060008AD060008AD060008AD06000854
:1000C000AD060008AD060008AD060008AD06000844
:1000D000AD060008AD060008AD060008AD06000834
:1000E000AD060008AD060008AD060008AD06000824
:1000F000AD060008AD060008AD060008AD06000814
:10010000AD060008AD060008AD060008AD06000803
:10011000AD060008AD0600080D220008AD06000877
:10012000AD060008AD060008AD060008AD060008E3
:10013000AD060008AD060008AD060008AD060008D3
:10014000AD060008AD060008AD060008AD060008C3
:10015000AD060008AD060008AD060008AD060008B3
:10016000AD060008AD060008AD060008AD060008A3
:10017000AD060008AD060008AD060008000000004E
:10018000AD060008AD060008AD060008AD06000883
:10019000AD060008AD060008AD060008AD06000873
:0C01A00019220008AD0600082522000806
:1001B00010B5054C237833B9044B13B10448AFF3A1
:1001C00000800123237010BD800300200000000088
:1001D0001446020808B5034B1BB103490348AFF3AB
:1001E000008008BD000000008403002014460208BF
:1001F00001F0FF01102A2BDB10F0070F08D010F8D8
:10020000013B013A8B422DD010F0070F42B3F6D1DB
:10021000F0B441EA012141EA014122F007047FF0F4
:1002200000070023F0E80256083C85EA010586EA4B
:10023000010685FA47F5A3FA87F586FA47F6A5FA87
:1002400087F68EB9EED1F0BC01F0FF0102F0070293
:1002500032B110F8013B013A83EA010313B1F8D13E
:100260000020704701387047002D06BF354603381F
:10027000073815F0010F07D1013015F4807F02BF58
:10028000013015F4C03F0130F0BC0138704700BFA9
:100290007BB972B90029BEBF00204FF0004106E0D3
:1002A00008BF00281CBF6FF000414FF0FF3000F086
:1002B000D3B9ADF1080C6DE904CE002909DB002BA0
:1002C0001ADB00F04DF8DDF804E0DDE9022304B0AC
:1002D0007047404261EB4101002B1BDB00F040F80E
:1002E000DDF804E0DDE9022304B0404261EB4101A6
:1002F000524263EB43037047524263EB430300F007
:100300002FF8DDF804E0DDE9022304B0404261EBA0
:1003100041017047524263EB430300F021F8DDF8DE
:1003200004E0DDE9022304B0524263EB430370476B
:1003300053B94AB9002908BF00281CBF4FF0FF314C
:100340004FF0FF3000F088B9ADF1080C6DE904CE34
:1003500000F006F8DDF804E0DDE9022304B07047A0
:100360002DE9F047089D8E4604468846002B4AD169
:100370008A42174662D9B2FA82F64EB1C6F120031C
:1003800001FA06F820FA03F3B74043EA0808B4403C
:100390004FEA174E1FFA87FCB8FBFEF1230C0EFB49
:1003A000118843EA084301FB0CF29A4209D9FB1871
:1003B00001F1FF3080F0EA809A4240F2E780023992
:1003C0003B449A1AA3B2B2FBFEF00EFB102243EAA2
:1003D000024300FB0CFC9C4509D9FB1800F1FF32DD
:1003E00080F0D6809C4540F2D3803B44023840EAFE
:1003F0000140A3EB0C0300211DB1F3400022C5E92D
:100400000032BDE8F0878B4205D90DB1C5E9000186
:1004100000210846F5E7B3FA83F1002946D1734578
:1004200002D3824200F20581841A6EEB030201209E
:100430009046002DE5D0C5E90048E2E7002A00F02B
:100440009080B2FA82F6002E40F0A4808A1A030C43
:100450004FEA174E80B2BCB20121B2FBFEFC0EFB8C
:100460001C2243EA024304FB0CF29A4207D9FB1810
:100470000CF1FF3802D29A4200F2E080C4469B1A87
:10048000B3FBFEF20EFB123340EA034302FB04F41B
:100490009C4207D9FB1802F1FF3002D29C4200F2C5
:1004A000CA8002461B1B42EA0C40A5E7C1F12006A8
:1004B0008B4022FA06F71F430EFA01F420FA06F3E6
:1004C0002EFA06FE4FEA1749234300FA01F81FFAF5
:1004D00087FCBEFBF9F01C0C09FB10EE44EA0E444D
:1004E00000FB0CFEA64502FA01F209D93C1900F105
:1004F000FF3A80F09C80A64540F2998002383C4447
:10050000A4EB0E041FFA83FEB4FBF9F309FB1344BA
:100510004EEA044403FB0CFCA44508D93C1903F142
:10052000FF3E80F08280A4457FD9023B3C4443EAF1
:100530000040A4EB0C04A0FB02EC64457346E146CA
:1005400062D35FD05DB1B8EB030264EB090404FA37
:1005500006F622FA01F31E43CC40C5E900640021EF
:100560004FE7B1FBF2FC010C41EA0E4180B240EAD8
:1005700001423B4638463C46B846BE462026B1FBC3
:10058000F7F1A2EB080241EA0C4166E7014618E7E1
:1005900010462CE7C6F120022EFA02F3B740B14014
:1005A00020FA02F24FEA174E0A43B3FBFEF8BCB240
:1005B0000EFB1833110C41EA034108FB04F9B0406B
:1005C00089454FEA104380B23ED9791808F1FF3CC3
:1005D00001D289451FD8A1EB0901B1FBFEF909FB46
:1005E00004F80EFB191192B242EA0142424529D2A7
:1005F000BA1809F1FF31C4D24245C2D2A9F10201B1
:100600003A44BEE7F0459DD2BEEB02036CEB070C0B
:100610000138E14696E7A7EB09094944A8F1020C25
:10062000B1FBFEF909FB04F8DBE773467FE75046B0
:1006300066E70846FDE63B44023A33E7ACF1020CBC
:100640003B441CE749469CE7A1EB0901C446B1FBCA
:10065000FEF909FB04F8C4E7704700BFDFF834D0A7
:10066000002103E00C4B5B58435004310B480C4B0A
:1006700042189A42F6D30B4A02E0002342F8043BA8
:10068000094B9A42F9D304F04DF923F055FA01F0E1
:1006900067F8704700000320F850060800000020AB
:1006A000640100208003002054470120FEE77047CA
:1006B00008B500F0BFFDBDE8084000F041BD00F006
:1006C000BBBD704710B50421044622F048F820460F
:1006D00010BD000038B50C4B0C4C18800C4B822020
:1006E00019806368984740F6110398420AD1094D72
:1006F00023682C60822098472B688220DB6898470B
:10070000002038BD0120FCE7A60300204C0000209B
:10071000A4030020A80300204FF4A071F020FFF7ED
:10072000D9BF0000F7B5394D2B6804461B698220FC
:100730009847208000284ED02B680DF106025B6997
:1007400001A982209847324B1B78002B4BD0BDF873
:10075000062040F674639A423FD9ADF80630BDF8E2
:1007600006209B1A9BB20A2B42D90B22B3FBF2F351
:10077000284A1288934201D9013A93B2BDF8042065
:10078000254840F6B8318A4234D8C2F571620E323B
:10079000016892B20F25B2FBF5F2204D2D88AA42D6
:1007A00084BF05F1FF35AAB28A4215468EB22AD916
:1007B000921B91B21A4E3768BB42BAB28CBF9A1ADA
:1007C000D21A92B211440529C4BF05603360036890
:1007D00063803368A38003B0F0BDB32A9CBFB4220A
:1007E000ADF80620BBE7BDF80630A3F5B473B9E752
:1007F0000023C3E7C2F56D62083292B20E2A016887
:10080000C8D800252A46891A89B2D3E7A803002050
:10081000D0290020A4030020A0030020A60300206C
:100820009C03002037B568460D461446FFF77AFF53
:10083000BDF8000030B1BDF802302B60BDF80430C7
:100840002360012003B030BD032821D8DFE800F089
:10085000020B12190F4B1A68B2FA82F252090421E4
:100860000D4804F0F3BA0B4B5A68B2FA82F25209FF
:100870000821F5E7074B9A68B2FA82F25209102173
:10088000EEE7044BDA68B2FA82F252092021E7E778
:10089000704700BFAC03002000100240032821D89D
:1008A000DFE800F0020B12190F4B1A68003A18BF6C
:1008B000012204210D4804F0C9BA0B4B5A68003AD2
:1008C00018BF01220821F5E7074B9A68003A18BFC4
:1008D00001221021EEE7044BDA68003A18BF01222A
:1008E0002021E7E7704700BFAC0300200010024062
:1008F00003280DD8DFE800F00206080A04210548A5
:1009000004F0A9BA0821FAE71021F8E72021F6E758
:10091000704700BF0010024008B5032811D8DFE877
:1009200000F0020A0C0E0421074804F089FA431E65
:100930005842584108BD0821F6E71021F4E720216C
:10094000F2E70020F3E700BF0010024070B5084D49
:1009500000240126E0B2FFF7DFFF18B12B68012B5E
:1009600018BF2E600134052C05F10405F2D170BDCD
:10097000AC030020012380F8781080F879307047AC
:100980007047002070470000034B4164003918BFD6
:1009900001211970704700BF133A012070470020F1
:1009A0007047836B0BB10846184770474FF6FF70CE
:1009B0007047406803689B691847704770477047E5
:1009C0007047704710B5044600F04CFD236803499A
:1009D000D3F890302046BDE810401847000000D002
:1009E00008B503680446D3F8843098472368204646
:1009F000DB6F984700F0ECF8236820465B6F984760
:100A0000292001F01DF900F0E3F8236820465B6F10
:100A10009847F8E710B5044609F06AFB23682046BA
:100A2000D3F8BC30BDE81040184700F0FFBC00F020
:100A300003BD00F035BD00F0D5BC00F045BD00F0B1
:100A40004DBD00F0D9BC08F081BD10B5842104462D
:100A500021F085FE204610BD10B590F8341090F8B6
:100A600078400C4B8C421A7809D03AB90A4A0B49A3
:100A70001488088810800C8001221A7010BD002A8A
:100A8000FCD0054A05491488088810800C80002293
:100A9000F3E700BF0C3A0120083A01200A3A01208E
:100AA00070B50D46194635B9094B0A4A0A4840F255
:100AB000FF2122F091FDC0E90F52084B003A18BF08
:100AC00001221A700368BDE87040D3F890301847CF
:100AD00084460208BC4602080A470208123A01206E
:100AE00008B5094B1B888B4203D8084B1B889342DF
:100AF00005D9074B074A0848A32122F06DFD074B93
:100B00001980074B1A8008BD083A01200A3A0120D3
:100B10004F470208B24702080A4702080E3A01206E
:100B2000103A0120034690F87A0018B1586803681B
:100B30001B68184770470000012108B500220846CD
:100B400006F0F8F90A4B186028B90A4B0A4A28211E
:100B50000A4822F041FD00220421012006F089FA12
:100B6000074B186018B9074B034A2C21F0E708BD62
:100B7000C0030020F54702083E4802086D480208FD
:100B8000BC030020B6480208024B4FF0FF31186842
:100B900006F01ABAC0030020014B186806F040BAEC
:100BA000C0030020024B0021186806F00DBA00BFF8
:100BB000C0030020FFF7F0BF03480449006800238A
:100BC0001A4606F091BA00BFBC03002004000020C2
:100BD00013B5084C00231A4601A9206806F0B5FA9F
:100BE00020684FF0FF33002201A906F0AEFA02B0F0
:100BF00010BD00BFBC03002003685B6C18470120D8
:100C0000704703689B6A1847FEE740F2EF30704771
:100C1000054B0360054B4FF08062C3F88820BFF39B
:100C20004F8FBFF36F8F70472855020800E100E037
:100C300010B504464FF45A61FFF7EAFF204621F051
:100C40008EFD204610BD000082B0002301930E4BA4
:100C50001A6B42F400021A631A6B02F4000201924A
:100C6000019A1A6942F400021A611A6922F4000218
:100C70001A61064B064A1A61064A5A61064B4FF042
:100C800080629A6002B0704700380240642B0020F6
:100C9000E90E0008090C000800E100E008B50A2888
:100CA00009D8DFE800F006100E0808080810101038
:100CB0001000022008BD054B054A0648902122F08D
:100CC0008BFC0020F6E70120F4E700BFF84802089B
:100CD000134902085E49020838B50C46887FFFF7C1
:100CE000DDFFA58AE28A164B2169586342EA054274
:100CF0005A64628BD963521B1A642568082D0ED181
:100D00009A611A615862207F0E4A42EA0062DA61F3
:100D1000E2681A620C4A5961D9601A6038BD002233
:100D2000D8611A61E1680A0A480902F4784200F4BD
:100D3000FC600243C1F3C4010A439A63034AECE72F
:100D400000B002400900010001230200012303005A
:100D500008B50B280BD8DFE800F00612100A0A0AC3
:100D60000A0808080808022008BD0520FCE7054B12
:100D7000054A06486F2122F02FFC0020F4E70120ED
:100D8000F2E700BFF8480208A54902085E490208D8
:100D90002DE9F04191F81D800C464046FFF7D8FF41
:100DA000A77F05463846FFF7D3FF06463846FFF7CC
:100DB00075FFA18A628B444B521A1A649A61228B86
:100DC000521A1A61E28A586342EA01425A6421695E
:100DD0006268D963DA602068802828D0227F0FD823
:100DE000202867D0402865D004281AD0364B45EA21
:100DF000026545F40035B845DD6161D0334A44E011
:100E0000B0F5807F04D0B0F5007FEFD1304800E02E
:100E1000304840EA0262DA61E2681A625E62596151
:100E200032E045EA026242F40032DA61F6E7A06895
:100E3000021DDA62227F45EA026545F40035DD6174
:100E40005E625961017841B1012921D0224B234AC8
:100E500023484FF48D7122F0BFFBDA69418822F4F8
:100E60007F42013922F0100242EA0122DA610121B7
:100E7000154BDA6942F02002DA61DA699206FCD495
:100E800010229A600029B9D0164A1A60BDE8F08194
:100E9000B2F1FF01DA69408822F47F4200F1FF30AD
:100EA00022F0100242EA002242F0100218BF012193
:100EB000DA61DDE745EA0262034B42F40032B4E74F
:100EC00042F20132E1E700BF00B00240012301001D
:100ED000090002000A000200EF490208094A02085C
:100EE0005E49020801230200024B1B685868036830
:100EF0005B691847143A012070B5044625460A4B31
:100F00000C30002660602672667245F8203B602235
:100F1000294609F043FA04F55A63EE6024359D42F0
:100F2000FBD1204670BD00BF28550208034B1A684C
:100F3000D207FCD423229A60704700BF00B0024061
:100F40007047000030B50F4C2568ED07FCD4232511
:100F50000904A56041F001010225FF2B656361646E
:100F6000E0630AD00849656241EA0363E361074B25
:100F700022626061E060236030BDE561039BA36392
:100F8000034BF8E700B00240090001000100020035
:100F90000100030030B50E4C2568ED07FCD4232575
:100FA0001204A56042F001020225FF2B6563626412
:100FB000E063E16008D01B0643F00213E361054BD8
:100FC00065626061236030BD034BE3610123F9E793
:100FD00000B0024001000200020002FF30B50B4CDD
:100FE0002568ED07FCD4232512041B06A56043F4F5
:100FF0000033022542F0010265636264E063E16050
:10100000E361034B65626061236030BD00B0024064
:1010100001000200012070470C2070470C2303FBE5
:101020000100083070470C2303FB010008307047B3
:10103000012070474FF4A55070474FF4A55303FBB0
:101040000100083070474FF4A55303FB010008303E
:101050007047012070472020704700EB4110083096
:10106000704700EB411008307047084601F032BA73
:1010700010B5034B0360044607F0BDFF204610BDCA
:10108000E055020810B50446FFF7F2FF2046142190
:1010900021F065FB204610BD10B5034B03600446EC
:1010A00007F0A9FF204610BDAC55020810B5044654
:1010B000FFF7F2FF204641F2A84121F050FB204605
:1010C00010BD000010B5034B0360044607F093FF0A
:1010D000204610BD7855020810B50446FFF7F2FF10
:1010E0002046282121F03BFB204610BD10B5094BBE
:1010F0000360044600F5A7500430FFF7B9FF04F180
:101100003C00FFF7C9FF04F11400FFF7DBFF2046A6
:1011100010BD00BF1456020808B50248FFF7E6FFED
:1011200008BD00BF9C12002010B50446FFF7DEFF8B
:10113000204641F26C6121F012FB204610BD0000F8
:101140002DE9F34101F0E2F8054601F0E3F800244F
:101150000146234628462246009412F06DFA274B9A
:10116000274A1A60204602F0A1FD264D264B274A49
:1011700027489A6012F0C8F92B68BFF35B8FDB0732
:1011800036D4284621F0EDFA90B3224C224F234B5F
:10119000236007F12C0604F1140004F13C086060A0
:1011A000C4F80880E760266107F026FF1C4B6361E6
:1011B000404607F021FF1B4BE363384607F01CFF56
:1011C00004F5805303F59F60174AC3F8E42402F046
:1011D000D9FF224607F11401304602F0E1FD304606
:1011E00001F078F9114822F015FA284621F0C5FAE5
:1011F0000F4802B0BDE8F041FFF7E4BB783A0120A8
:101200004804002098120020680400204C040020AC
:10121000080000209C12002080270020145602089D
:1012200078550208AC550208E0550208191100086B
:10123000C4030020704700000148FFF7D1BB00BF86
:10124000C403002070B5264E264C274D274B236043
:101250003046FFF751FE284617F0F4FA24480FF005
:101260002DFE244B2448DC6000224FF48071C3E93A
:10127000121222491A86C3E91A12214983F858200A
:10128000C3E91E011F49C3F880101F491F480B60A6
:10129000F021C3E90422C3E90622C3E90822C3E915
:1012A0000A22C3E90E22C3E91022C3E91422C3E9CA
:1012B00017225A6683F870205A67C3E901650180D6
:1012C0001348018013484FF4A07101801248018037
:1012D00012490A70012283F83420114A1A6070BD45
:1012E000F4040020941200206804002074460208D0
:1012F0004C040020C4030020000001010100000193
:10130000000450001A001400143A0120083A012089
:101310000E3A01200A3A0120103A01200C3A01202D
:101320003C5402080148FFF773BC00BFF4040020DE
:101330000020704781807047C180704701817047ED
:10134000418170477047704770477047704710B4CD
:10135000C4880368121B84885B6D091B12B25DF898
:10136000044B09B218474FF6FF7383814FF0FF33E8
:1013700003621368C36110607047002070478B8858
:10138000838001207047704780F82610704790F8DE
:101390002600704710B50022B1F90840B1F90A10D3
:1013A000028042808480C18010BD00220280428081
:1013B0008280C28070470177704780ED080A7047CD
:1013C00080F82410704780F825107047012070477E
:1013D000983070478C307047843070477047704742
:1013E00070470000034B902283F85A2383F8582358
:1013F000704700BF00E100E0094A0A49D3680A4883
:10140000C3F30A03013B9BB20B801169C1F30A01CC
:10141000013901801364536B43F001035363704738
:10142000006801400A29002008290020014BD3F858
:10143000AC00704700680140024B0122C3F8AC10B9
:101440005A6270470068014010B52C21044621F013
:1014500086F9204610BD10B5BC21044621F07FF965
:10146000204610BD70B5044608F0C5F823689D6E8F
:101470000EF0BCFA01462046A8472368054AD3F877
:101480008C502046AC460023BDE87040A2F51631D2
:10149000604700BF00B004D008F094B808F09EB8D0
:1014A00008F05AB808F0C9B990F8252012B10368BD
:1014B0005B691847704790F825201AB190F82420EE
:1014C00002B1186070470000034B4FF080629A60D1
:1014D0004FF080729A60704700E100E0084B4FF0D7
:1014E0008062C3F88820BFF34F8FBFF36F8F4FF038
:1014F0008072C3F88820BFF34F8FBFF36F8F7047A0
:1015000000E100E070B50023124E8380124B0360AF
:10151000336893F8582005460AB1D86C00B998682A
:101520000368DB6A98473368B0FA80F4D86C6409C2
:1015300030B10368DB6A9847002808BF44F0010413
:101540002CB9064B064A07482C2122F045F82846BC
:1015500070BD00BF143A012028560208474A02080D
:10156000A54A0208DE4A020870B5254E3568BFF369
:101570005B8F15F0010540D1304621F0F2F80028CC
:101580003BD0204C204B256104F13400C4E90035E8
:10159000C4E90255E584A562A5850FF074FF04F146
:1015A00058000AF0B1FB194BA3652046184B40F8D0
:1015B000843BFFF7A7FF174BC4F884302433C4F8EB
:1015C0008C304FF4C803C4E928350023C4F8AC308C
:1015D000C4F8B030C4F8B430C4F8B8300E480F4B7B
:1015E000C4F89050C4F89C50C4F8A850C4F898307F
:1015F00022F010F8304621F0C0F8024870BD00BF5C
:101600000C29002010290020445F020848560208D7
:10161000C0560208F85E0208E1130008D85E02080E
:1016200038B5184C23685BB3174B184A1B6C1188EC
:101630008B4216D1164B198804F010FA236893F8E0
:101640006A200025013283F86A2083F87C50FFF776
:10165000B3FA206808F04CFD2846BDE83840FFF793
:10166000F3B804F0FBF92468236820461B6A984706
:10167000012384F87C300020BDE83840FFF70EB924
:1016800038BD00BF143A0120006801400A2900203B
:101690000829002007B5064BADF806001B68054871
:1016A00001220DF1060104F079FF03B05DF804FB9F
:1016B0000C000020102A002008B5642005F02EFC44
:1016C000FBE7000030B595B0102200210AA822F0F7
:1016D0008AF91422002103A822F085F900241E4B68
:1016E00001941A6C42F080521A641B6C03F0805310
:1016F0000193019B194B02941A6842F440421A600C
:101700001B6803F4404302930122029B4FF4803391
:10171000CDE9082302254FF480030821CDE90E53BB
:101720004FF4B473CDE9101308A804231393129552
:1017300004F0ECF904F0B0F90F23CDE903354FF4D0
:10174000A0504FF48053CDE90603052103A805946A
:1017500004F0B8FB15B030BD003802400070004006
:1017600080B59AB003F0ECF8FFF7ACFF142200212B
:101770000DA822F038F90024C74B00941A6BC74813
:10178000C74DDFF8588342F010021A631A6B02F05B
:1017900010020092009A01941A6B42F020021A6320
:1017A0001A6B02F020020192019A02941A6B42F025
:1017B00080021A631A6B02F080020292029A03946A
:1017C0001A6B42F004021A631A6B02F004020392CD
:1017D000039A04941A6B42F001021A631A6B02F026
:1017E00001020492049A05941A6B42F002021A63F1
:1017F0001A6B02F002020592059A06941A6B42F0E7
:1018000040021A631A6B02F040020692069A07948D
:101810001A6B42F008021A631B6B03F0080322469E
:1018200007933C21079B03F011FB9E4801220221F4
:1018300003F00CFB22469B48042103F007FB2246E1
:1018400099484FF4405103F001FB01263C23CDE9B8
:101850000D3692480F9403230DA90227109303F02D
:101860000BFA90480DA9CDE90D76CDE90F4403F0B0
:1018700003FA04238B480DA9CDE90D36CDE90F47B6
:1018800003F0FAF90DA94FF440538748CDE90D361E
:10189000CDE90F4703F0F0F98448854B036003F06E
:1018A000E1F8DFF83CE2834B2C62C5E900E328460F
:1018B0004FF48043C5E90434C5E90244C5E9064450
:1018C00003F0D2FC1021284603F016FF21462846DB
:1018D000794D03F030FF4FF48273C5E900834FF474
:1018E00000791823C5E9069328460A23C5E902446E
:1018F000C5E90444C5E90844AC62EB6204F0F2FDBA
:101900008F232246394667488DF824308DF83440BD
:1019100003F09CFA32464FF47A7309A9284604F082
:101920003DFE4FF47A7332460DA9284604F0E2FFDB
:10193000324639465B48614D03F088FA9DF83430F1
:10194000D32B04BF5E4B1E705E4B0126C5E90036EB
:10195000102240230024C5E904234FF4C073C5E9D5
:1019600006344FF40063C5E908344FF400530227EE
:101970004FF00409AB624FF0030A07230DA9284674
:10198000CDE90D73CDE90F934FF00808C5E9024981
:10199000CDE911A7139704F089FC4FF6FF7209A94E
:1019A0002846CDE90A86089409960C9404F09EFC1A
:1019B000304602F0F1FF4FF6FF7209A92846CDE943
:1019C0000978CDE90B6404F091FC4FF6FF7209A988
:1019D0002846CDE909A8CDE90B9404F087FC4FF423
:1019E0000C730893089B0C934FF6FF7209A92846C5
:1019F000CDE909980B9604F079FC40F26A5128462B
:101A000004F092FC34220DEB0200214621F0EBFFA2
:101A10002D4D2E4B2C61C5E900340923C5E905364F
:101A20001D23C5E9073A40F20D1140F24313C5E901
:101A3000091340F2171040F24713C5E90B0328467B
:101A4000C5E90244AC8685F8364003F00FFFFF215C
:101A50004FF4806CF022CDE912140521CDE914C1B8
:101A60004FF4A0730DA9CDE90E24CDE91642284606
:101A70002246174D1893CDE910370D94ADF8644008
:101A80008DF8664003F0BDFF124B2B601B68984732
:101A90002B68114DDB6825E0003802400010024041
:101AA000102B002000080240000C0240A42B002054
:101AB00000300240A0860100102A0020DC2900200E
:101AC000D0290020400100A0682A002000680140C1
:101AD000CC29002014000020642B0020005001407D
:101AE000005C00409847134B2846C5E90034C5E91F
:101AF0000274C5E90A47C5E90C4402F0C3FF314648
:101B0000284603F075F8FEF7D3FDFEF7D0FD05F08B
:101B100095F9094A0948214605F0BCF9084B094ADC
:101B200018602146084805F0B5F9084B186005F023
:101B300097F9FEE700B0024028570208B9160008DE
:101B4000D829002004570208BF060008D429002025
:101B5000704770477FB5094B8DF817201B680293BB
:101B60000DF117020123009201930A460146044831
:101B700003F022FC07B05DF804FB00BF100000205A
:101B8000102B00207FB500238DF81730084B1B6801
:101B900002930A4601230DF11701009101930146BA
:101BA000044803F099FC9DF8170007B05DF804FBAA
:101BB00010000020102B00201FB5084C2468009254
:101BC000CDE901340A4601230146054803F084FCAF
:101BD000003818BF012004B010BD00BF1000002065
:101BE000102B002002F0D8BE10B5064C0022204673
:101BF000042103F02BF920460122BDE81040042106
:101C000003F024B90008024038B50B4D0446012208
:101C10000A484FF4005103F019F900220421284624
:101C200003F014F92046FFF735FD28460122BDE8F0
:101C30003840042103F00AB900080240000C0240B9
:101C400038B50B4D044600220A484FF4005103F00A
:101C5000FDF800220421284603F0F8F82046FFF79B
:101C600019FD28460122BDE83840042103F0EEB8F2
:101C700000080240000C0240F7B5144E144F054610
:101C80000C4630460022042103F0E0F800224FF415
:101C90000051384603F0DAF82846FFF7FBFC0D4BFD
:101CA0000D481B68224601A904F024FE3846012293
:101CB0004FF40051019C03F0C9F830460122042181
:101CC00003F0C4F8204603B0F0BD00BF0008024096
:101CD000000C02400C000020102A002002F05CBE24
:101CE0000268034B9A4201D102F044BE704700BF24
:101CF000001000407047000082B00E4B002200929E
:101D0000596C41F480415964596C01F4804100914F
:101D100000990192196C41F0805119641B6C03F019
:101D200080530193019B0F216FF0010002B002F07C
:101D300059BE00BF003802400268094B9A4282B087
:101D40000BD100230193074B1A6B42F480521A63A4
:101D50001B6B03F480530193019B02B0704700BFDB
:101D6000003002400038024007B50F4B02689A422B
:101D700016D10022A3F5F0430192196B41F4000142
:101D800019631B6B03F40003019305215A20019B87
:101D900002F028FE5A2003B05DF804EB02F054BEB6
:101DA00003B05DF804FB00BF00B002402DE9F04332
:101DB000044689B01422002103A821F014FE2268F1
:101DC000244B9A4243D1244C244800250095236B90
:101DD00043F004032363236B03F004030093009B8D
:101DE0000195236B43F001032363236B03F001038D
:101DF0000193019B4FF012094FF400734FF001085B
:101E00000327042603A9CDE90339CDE90587079601
:101E100002F032FF4FF480731148079603A9CDE911
:101E20000339CDE9058702F027FF0295236C43F4BF
:101E300000032364236C03F400030293029B236AD0
:101E400043F400032362236A23F40003236209B0EE
:101E5000BDE8F083005C004000380240000802400A
:101E600000000240F0B599B004461422002107A8F2
:101E700021F0B9FD30220DEB0200002121F0B3FD6D
:101E800022685E4B9A4240F0B78008230C93C0232F
:101E90001093042312930CA84FF40033159304F00D
:101EA000D9F808B1FFF726FF554B56480024009497
:101EB0005A6C42F080625A645A6C02F0806200925E
:101EC000009A01941A6B42F020021A631A6B02F016
:101ED00020020192019A02941A6B42F001021A63E5
:101EE0001A6B02F001020292029A03941A6B42F0FA
:101EF00002021A631A6B02F002020392039A04941C
:101F00001A6B42F040021A631A6B02F0400204920C
:101F1000049A05941A6B42F004021A631A6B02F0D9
:101F200004020592059A06941A6B42F008021A639D
:101F30001B6B03F00803069302250E26069B0B96E7
:101F40004FF4806307A9CDE90735CDE9094502F0D3
:101F500093FE41F658032C480B9607A9CDE90735A7
:101F60000927CDE9094502F087FE032327480B978F
:101F700007A9CDE90735CDE9094502F07DFE4FF40B
:101F8000706322480B9607A9CDE90735CDE90945CD
:101F900002F072FE4FF40C631D480B9607A9CDE9C1
:101FA0000735CDE9094502F067FEC02319480B96B5
:101FB00007A9CDE90735CDE9094502F05DFE082303
:101FC00015480B9607A9CDE90735CDE9094502F07B
:101FD00053FE4FF4A0530E480B9707A9CDE90735E0
:101FE000CDE9094502F048FE58202246052102F0BD
:101FF000F9FC582002F028FD19B0F0BD006801403E
:102000000038024000140240000002400004024078
:102010000018024000080240000C024010B50446BF
:1020200088B01422002103A821F0DDFC2268144BA3
:102030009A4223D103F56843002101915A6C11485B
:1020400042F480125A645A6C02F480120192019A8E
:1020500002911A6B42F020021A631B6B03F02003FB
:102060000293029B4FF4607202230321CDE9032304
:102070000523CDE9061303A902F0FEFD08B010BD4B
:1020800000500140001402402DE9F04186B00023C9
:1020900003932B4B1C68002C4FD14FF00108C3F861
:1020A0000080284B00949A6B274842EA08029A6302
:1020B0009B6B03EA08030093022703260C25009B71
:1020C00001A94FF63F03CDE90137CDE9046502F0E0
:1020D000D3FD1E48059501A9CDE90187CDE9034649
:1020E00002F0CAFD48F233131948059501A9CDE95C
:1020F0000137CDE9034602F0BFFD4FF68373154863
:10210000059501A9CDE90137CDE9034602F0B4FDFB
:102110004CF203731048059501A9CDE90137CDE9CB
:10212000034602F0A9FD60230C48059501A9CDE9FD
:102130000137CDE9034602F09FFD06B0BDE8F0810E
:10214000AC2B00200038024000140240000802407E
:102150000018024000100240000C0240000402403F
:1021600070B588B000230293204B1A6C42F0100225
:102170001A641B6C03F010030293054601A903A81F
:10218000029B03F049FF069B4BBB03F035FF184E43
:10219000184B336040F2E733F360174BB0FBF3F3B7
:1021A000013B7360304600233361B360B36104F0D8
:1021B00071FD044680B9304604F042FC044658B92B
:1021C000362002F041FC0F2D0DD82246294636203C
:1021D00002F008FC094B1D60204608B070BD03F0FA
:1021E0000BFF4000D3E70124F6E700BF00380240B0
:1021F000B02B00200010004040420F007C00002067
:102200007047FEE7FEE7FEE7FEE77047014804F08F
:1022100055BC00BFB02B0020014803F095BB00BFA8
:10222000682A0020014802F059BC00BF642B00203E
:102230000120704708B521F079FC162303604FF0A8
:10224000FF3008BD08B521F071FC16230360FEE7DE
:1022500070B50D4614460E46731B9C4201DC2046A9
:1022600070BDAFF3008006F8010BF5E770B50D46C1
:1022700014460E46731B9C4201DC204670BD16F8C6
:10228000010BAFF30080F5E74FF0FF3070474FF4DC
:1022900000534B60002070470120704700207047BA
:1022A0000A4A116808B5034609B90949116010685E
:1022B000694603448B4206D921F038FC0C230360A5
:1022C0004FF0FF3008BD1360FCE700BFF82B002083
:1022D00058470120704710B50421044620F03FFA0A
:1022E000204610BD012908B506D0022908D059B9E9
:1022F00001F028FD006808BD01F024FD4068FAE700
:1023000001F020FD8068F6E70020F4E70048704700
:10231000605702080920704713B5002451B10368C3
:1023200001948DF8034001AA9C680DF10303A047B6
:1023300002B010BD0846FBE7C0897047008A7047AD
:10234000C088704780887047807A00F07F007047AF
:10235000807AC00970470020704700009FED010A95
:10236000704700BF00000000704710B50821044608
:1023700020F0F5F9204610BD7047704700F59873BE
:102380000868496803C370477047704741607047E9
:1023900070477047064BC0F84C310023C0F85031ED
:1023A00000F5A273C0F84801C0F84031704700BF83
:1023B00035290008012303727047704710B4C268C2
:1023C00041685410034601EB6200D20748BF0A5926
:1023D0009B685DF8044B48BFD358184703464068D4
:1023E00030B19A681AB9D86800F00100704701202E
:1023F000704710B50C21044620F0B1F9204610BDFD
:1024000010B51021044620F0AAF9204610BD10B5E1
:102410004FF4AE71044620F0A2F9204610BD10B56D
:102420000DF0E4FA0368BDE81040DB6B184710B507
:102430000446D0F8400158B10368DB68984738B1CA
:10244000D4F8400103689B6898470023C4F84031E2
:1024500010BD0000044B1B6893F858200AB1D86CDB
:1024600000B99868704700BF143A0120F8B51746C4
:1024700004460E460DF07CFB124B1C60124B236091
:10248000124B0025C4E95135114BC4E95355186866
:10249000036801219B68C4E94F55C4E95576984704
:1024A000284601F003FCFFF7D5FF18F074F8FFF79A
:1024B000D1FF18F0EBF8FFF7CDFF18F0F3F8204646
:1024C000F8BD00BF683A0120445802082C580208A1
:1024D000143A0120064BC0F84C310023C0F85031AB
:1024E00000F5A273C0F84801C0F84031704700BF42
:1024F00035290008064BC0F84C310023C0F8503194
:1025000000F5A273C0F84801C0F84031704700BF21
:10251000ED270008064BC0F84C310023C0F85031BD
:1025200000F5A273C0F84801C0F84031704700BF01
:10253000A5260008064BC0F84C310023C0F85031E6
:1025400000F5A273C0F84801C0F84031704700BFE1
:102550005D25000803685B6A184700002DE9F14F0C
:10256000D0E9556A0746B06803681B6A9847B0F51A
:10257000377F05D2434B444AA321444821F02CF82D
:10258000706803681B6A98470F2803D8404B3E4A7F
:10259000A421F2E7F06803681B6A98470B2803D868
:1025A0003C4B394AA521E8E70DF020FADFF8EC9022
:1025B00004300DF040FAD9F8000010B10368DB6870
:1025C0009847D9F8000010B103681B689847DFF8F6
:1025D000D080D8F8000010B103685B699847D7F83D
:1025E0003C0110B103685B689847D8F8000010B14F
:1025F00003681B689847D7F83C0110B103689B68D3
:102600009847F0680021FFF7A5FF4FF0000B224B21
:10261000C0F804B0044680F808B00360B0680368EE
:1026200059465B6A9847054601F006FE70680368E4
:1026300059465B6A98472946064601F0DBFD331D83
:10264000C7F83C61C9F80040C8F80050CAF800302B
:102650002B68C6F808A02846DB68EE639847336805
:1026600030461B689847214628460FF03DFC2368FA
:1026700020461B69984723685B69204601B0BDE886
:10268000F04F1847554B0208E34B0208B34C0208C1
:10269000FA4C02089D4D0208985802085C3A012045
:1026A000583A01202DE9F14FD0E9556A0746B06844
:1026B00003681B6A9847B0F5A55F05D2434B444AAF
:1026C000A321444820F088FF706803681B6A98477C
:1026D0001F2803D8404B3E4AA421F2E7F068036864
:1026E0001B6A98470B2803D83C4B394AA521E8E7D9
:1026F0000DF07CF9DFF8EC9004300DF09CF9D9F87E
:10270000000010B10368DB689847D9F8000010B1E9
:1027100003681B689847DFF8D080D8F8000010B134
:1027200003685B699847D7F83C0110B103685B68A0
:102730009847D8F8000010B103681B689847D7F88D
:102740003C0110B103689B689847F0680021FFF7CF
:1027500001FF4FF0000B224BC0F804B0044680F894
:1027600008B00360B068036859465B6A984705463D
:1027700001F0AAFB7068036859465B6A98472946CE
:10278000064601F025FB331DC7F83C61C9F800403F
:10279000C8F80050CAF800302B68C6F808A02846D0
:1027A000DB68EE639847336830461B6898472146DC
:1027B00028460FF099FB236820461B699847236839
:1027C0005B69204601B0BDE8F04F1847554B020841
:1027D000404E0208B34C0208FA4C02089D4D020814
:1027E000985802085C3A0120583A01202DE9F14F2F
:1027F000D0E9556A0746B06803681B6A9847B0F588
:10280000F27F05D2434B444AA321444820F0E4FE22
:10281000706803681B6A9847132803D8404B3E4AE8
:10282000A421F2E7F06803681B6A98470B2803D8D5
:102830003C4B394AA521E8E70DF0D8F8DFF8EC90D9
:1028400004300DF0F8F8D9F8000010B10368DB6827
:102850009847D9F8000010B103681B689847DFF863
:10286000D080D8F8000010B103685B699847D7F8AA
:102870003C0110B103685B689847D8F8000010B1BC
:1028800003681B689847D7F83C0110B103689B6840
:102890009847F0680021FFF75DFE4FF0000B224BD8
:1028A000C0F804B0044680F808B00360B06803685C
:1028B00059465B6A9847054601F088FD70680368D1
:1028C00059465B6A98472946064601F025FD331DA7
:1028D000C7F83C61C9F80040C8F80050CAF8003099
:1028E0002B68C6F808A02846DB68EE639847336873
:1028F00030461B689847214628460FF0F5FA2368B2
:1029000020461B69984723685B69204601B0BDE8F3
:10291000F04F1847554B0208144F0208B34C0208F9
:10292000FA4C02089D4D0208985802085C3A0120B2
:10293000583A01202DE9F14FD0E9556A0746B068B1
:1029400003681B6A9847EF2805D8444B444AA321E3
:10295000444820F041FE706803681B6A98470F28BE
:1029600003D8414B3E4AA421F2E7F06803681B6A92
:1029700098470B2803D83D4B394AA521E8E70DF0CD
:1029800035F8DFF8F09004300DF055F8D9F8000074
:1029900010B10368DB689847D9F8000010B10368EC
:1029A0001B689847DFF8D080D8F8000010B10368A2
:1029B0005B699847D7F83C0110B103685B6898479A
:1029C000D8F8000010B103681B689847D7F83C019D
:1029D00010B103689B689847F0680021FFF7BAFDC3
:1029E0004FF0000B224BC0F804B0044680F808B04A
:1029F0000360B068036859465B6A9847054601F072
:102A0000B5FB7068036859465B6A984729460646D5
:102A100001F08CFB331DC7F83C61C9F80040C8F8D1
:102A20000050CAF800302B68C6F808A02846DB68BA
:102A3000EE639847336830461B689847214628461E
:102A40000FF052FA236820461B69984723685B6998
:102A5000204601B0BDE8F04F184700BF554B0208B3
:102A6000E84F0208B34C0208FA4C02089D4D0208D8
:102A7000985802085C3A0120583A01207047704784
:102A800070477047704790F82C00704730B5036866
:102A900085B06D460181D3F884300146044628464E
:102AA000984795E807003C3484E8070005B030BD3E
:102AB00030B5036885B06D464181D3F88430014656
:102AC00004462846984795E807003C3484E8070008
:102AD00005B030BD0022028042808280C2807047F3
:102AE00080F83610704770B5036804461B6B1546B6
:102AF00098472368294620465B6EBDE8704018471A
:102B000000207047806C704770477047704770476F
:102B1000704770477047704700F59E73994270B5D3
:102B200004460D4602D10368DB6A984704F5BA7380
:102B30009D4203D1236820461B6B984704F5D6734A
:102B40009D4203D1236820465B6B984704F5F273DE
:102B50009D4205D1236820469B6BBDE87040184715
:102B600070BD30B4C26844685510034604EB62007F
:102B7000D20748BF62599B6830BC48BFD35818473A
:102B80000346406830B19A681AB9D86800F001006D
:102B900070470120704710B54C2104461FF0DFFD3F
:102BA000204610BD10B5382104461FF0D8FD204640
:102BB00010BD10B5102104461FF0D1FD204610BDF8
:102BC00010B5034B036004460BF016FA204610BD07
:102BD000405A020810B5064B036004460BF00CFA8D
:102BE000204641F254111FF0BAFD204610BD00BF2F
:102BF000405A020808B590F832300BB1FEF754FC89
:102C000008BD08B5FEF750FC08BD10B50446806A43
:102C100050B10368DB68984730B1A06A0368214669
:102C20009B68BDE81040184710BD70B504460D46BE
:102C300009F02AFC606B58B10368DB68984738B12B
:102C4000606B03682A4621469B68BDE870401847C0
:102C500070BD0000036870B55E6B124B1B680446C4
:102C60008DB22BB9104B114A6C21114820F0B4FCE5
:102C70001049828D0988914203D80F4B0B4A6D2170
:102C8000F3E713F812200D4B1B6853F8220003687A
:102C90001B6B9847291A3346204609B2BDE870409D
:102CA000184700BF6C3A0120B4500208F6500208E1
:102CB00031510208703A012078510208743A01201B
:102CC00000224FF0FF31C0E900218260704770B5EB
:102CD000036804461B6B154698472368294620461F
:102CE0005B6BBDE87040184770B504461D46BDF9E2
:102CF0001060FFF7ECFF2368294620469B6B98473E
:102D0000236831462046DB6BBDE870401847000061
:102D10000022C0E90122C0E90322C0E90522C0E97E
:102D200007224FF480728284014A0260704700BF1C
:102D3000BC58020810B526220446002120F053FE9C
:102D40002046FFF7E5FF044B2360FF2384F826307D
:102D50000023A362204610BD2462020810B5044679
:102D6000FFF7E8FF034B23600023E362238620463E
:102D700010BD00BF8C62020810B526220446002157
:102D800020F031FE2046FFF7C3FF012284F8242003
:102D90004FF6FF720023E285228684F83220044A2F
:102DA000A36284F82C3022606363204610BD00BF0C
:102DB000B45902082DE9F04F044695B0A04600250D
:102DC0000EF0E6FED04BE56348F8403B04F16C0B97
:102DD0004046FFF7AFFF5846FFF7C0FF04F1A003DE
:102DE00018460793FFF7BAFF04F1D4031846089377
:102DF000FFF7B4FF04F5847318460993FFF7AEFF9D
:102E000004F59E7318460393FFF7B6FF04F5BA73F3
:102E100018460493FFF7B0FF04F5D67318460593E0
:102E2000FFF7AAFF04F5F27318460693FFF7A4FF15
:102E300004F5077318460A93FFF790FF04F514731F
:102E40001846029309F034F904F5307318460B93D1
:102E5000FEF758FBAD4BC4F8C03204F53579243386
:102E6000C4F8C83226222946C4F8CC52484620F07D
:102E7000BAFD4846FFF74CFFA54BC4F8FC324FF6AD
:102E8000FF73A4F800334FF47F03C4F80833A14A5A
:102E9000A14BC4F8D4324FF0FF3704F58053C4E996
:102EA000C575C4F80453A4F80C53C4F81053C4F8FF
:102EB0001C53C3E95124994A4FF46161C3E9532576
:102EC00004F54D700BF08EF84FF4A073261D4FF0F3
:102ED0007F4A2A46404600932946F023FFF704FF25
:102EE0004146C4F868A0304606F09AF8F7234FF040
:102EF00001082A465846009329463C23FFF7F4FE72
:102F00005946C4E925A7A4F89C80304606F088F805
:102F1000F72300933C2319462A460798FFF7E4FE5F
:102F2000C4E932A70799A4F8D080304606F078F8B3
:102F3000F7232A460898009378213C23FFF7D4FE14
:102F4000C4E93FA70899A4F80481304606F068F860
:102F5000F7232A4609980093B4213C23FFF7C4FEC7
:102F6000C4E94CA70999A4F83881304606F058F80E
:102F700004F58A5B0398F7222946FFF7A8FE4FF075
:102F8000020A0BF1040B12AA0398ADF8448011A9B0
:102F9000ADF848A009F07CFE0399C4F864B130464E
:102FA00006F03EF80498F7223C21FFF790FE12AAA3
:102FB0000498ADF8448011A9ADF848A009F068FE66
:102FC0000499C4F89CB1304606F02AF80598F72217
:102FD0007821FFF77CFE12AA0598ADF8448011A96C
:102FE000ADF848A009F054FE0599C4F8D4B13046B4
:102FF00006F016F80698F722B421FFF768FE12AA29
:103000000698ADF8448011A94FF01808ADF848A013
:1030100009F03EFE0699C4F80CB2304606F000F8FE
:10302000DF220A98CDF800803C236FF01D01FFF7E6
:103030005BFE3B4B0A9984F84152C4E99137052362
:10304000A4F84C32304605F0EBFF0298CDF8008032
:10305000F023DF222946FFF747FE0B9BC4F87832A6
:103060000298C4F8CC722A462946A4F8D07209F016
:1030700035F902982A464FF4F05109F03AF9D4F89C
:103080008C32202B05D020230298C4F88C3209F012
:103090002FF80298012109F037F90299304605F01E
:1030A000BFFF472248464A21FFF711FE4FF07F43FA
:1030B000C4F80433D4F8D43200270CAD494628466E
:1030C000D3F88430A4F80873984795E8070009F10D
:1030D0003C0383E8070004F54873C4F81C334846F2
:1030E000A4F8207309F05AFD094B129312A948461F
:1030F000ADF84C7009F072FD3046494605F090FF7E
:10310000204615B0BDE8F08F405A0208F85E02086C
:103110001C580208285A020824590208192B0008D2
:103120000000FFFF406A7047806A704770478A88D6
:103130000B8810B5D20A4C88C1699BB251F82200A5
:1031400043EA0443184410BD10B50446BAB1107BDD
:1031500068B1537BD27A1B0203F4E0631A43236AFB
:1031600003EB82031A888A4202D193F9020010BD50
:1031700005D8013880B204330028F3D1F7E70020E6
:10318000F5E710B52C2104461FF0E9FA204610BDE2
:1031900030B58BB00446BDF860500895BDF85C5062
:1031A00007959DF8505006959DF84C5005959DF853
:1031B000485004959DF8445003959DF84050029561
:1031C0009DF83C500195BDF8385000950EF018FA66
:1031D000064B2360159BE361169B2362199B636278
:1031E0001A9BA36220460BB030BD00BF845A020870
:1031F00070477047704730B4C26844685510034642
:1032000004EB6200D20748BF62599B6830BC48BFDC
:10321000D35818470346406830B19A681AB9D8683D
:1032200000F0010070470120704710B510210446DE
:103230001FF095FA204610BD10B5F02104461FF08E
:103240008EFA204610BD9830884208B505D10CF0A2
:10325000CDFBBDE80840FFF74DB908BDF8B5194BE7
:10326000018F1B888B4206462AD9174B1B682BB946
:10327000164B174A17486C2120F0AEF913F81120AD
:10328000154B1B6853F82250144B186800F04AFD88
:103290002B6807469B6B284698472B6804469B6C17
:1032A0003946284698472B6814FB00F45B6A394678
:1032B00028469847A4B223181BB2A6F84630F8BD9A
:1032C0000023FAE7703A01206C3A0120B45002085A
:1032D000F650020831510208743A0120783A012070
:1032E0002DE9F34704460EF053FC464B2360464B52
:1032F0000025C4E910354FF48072FF2304F16C07F8
:10330000A4F8642084F86630A4F890204FF6FF7388
:103310003E4AE26604F19806A4F8923084F89430AC
:1033200001A93846C4E91255C4E91455C4E9165533
:10333000C4E91C55C4E91E55C4E92055C4E9225509
:10334000E5632566A566ADF8043009F04DFE30460C
:1033500009F08CFF2E4BC4E938342E4B04F14008A1
:10336000C4E93A352A4629464046FFF7B0FC4046B4
:10337000F021FDF7E3FF04F1040940464FF07F4AD6
:103380004FF4A071FDF7DCFF41464846C4F868A041
:1033900005F046FE442238465521FFF798FC01A966
:1033A0003846ADF8045009F01FFE3946484605F08E
:1033B00037FE3046C6220D21FFF789FC0323ADF806
:1033C000003004230DEB030269463046ADF80430AB
:1033D00009F05EFC0C23A4F8D0303046FFF73EFF26
:1033E0004FF0FF33C4F8D83004F1E0034846C4F886
:1033F000D4A0C4F8C030314605F012FE204602B019
:10340000BDE8F087045B020824620208F462020847
:10341000EC5A02084732000870477047704730B4D2
:10342000C26844685510034604EB6200D20748BFE7
:1034300062599B6830BC48BFD35818470346406860
:1034400030B19A681AB9D86800F0010070470120BD
:10345000704710B5102104461FF081F9204610BDB9
:1034600010B54FF4237104461FF079F9204610BDC2
:103470006C30884208B505D10CF0B8FABDE80840B8
:10348000FFF738B808BD00004FF4807181840D4902
:1034900001600D4981624FF6FF7181854FF47F0114
:1034A000002241634FF0FF31C0E90122C0E903224D
:1034B000C0E90522C0E90722C0E9101202630287B1
:1034C000C2637047946102081C58020810B5044694
:1034D000FFF7DAFF024B23600023A364204610BDF0
:1034E000245902082DE9F04F04468BB00EF050FB32
:1034F000A74A2260A74A0026C4E910264FF480722A
:1035000004F16C05A4F86420FF2284F86620C4E965
:103510001266C4E91466C4E91666E6632666A66602
:10352000284609F0A3FE04F1B40304F1FC08184690
:1035300004F5A4770193FFF7A7FF4046FFF7C6FF06
:103540003846FFF7C3FF04F5CA73184604F5F07B4D
:103550000093FFF7BBFF5846FFF7B8FF8E4AC4E958
:103560009F248E4A04F14009C4E9A126314632461F
:103570004846FFF7ACFB4846F021FDF7DFFE4FF071
:103580007F4A48464FF4A071FDF7DAFEC4F868A000
:103590004946201D05F044FD2846D7220D21FFF79E
:1035A00096FB032307A9ADF81C3008AA4FF00403CB
:1035B0002846ADF8203009F06BFB0622A4F8A420C1
:1035C0002846FFF74BFE04F51F72C4E92AAAC4F887
:1035D00094202946201D02AD05F022FD4FF0FF3A50
:1035E0000198DFF8BC9137225921FFF770FB019950
:1035F000C4F8E4A02846A4F8E86009F047F895E884
:10360000070004F1F00C8CE8070005220198ADF8E2
:10361000242008A9CDF8209009F0E0FA0199201D96
:1036200005F0FEFC40464F224C21FFF750FBD4F83A
:10363000FC20C4F82CA141462846D2F88420A4F8E6
:103640003061904795E8070004F59C7C8CE8070002
:1036500004F50B72C4F844214046A4F82C6209F02A
:103660009DFA4FF0040308A94046ADF82430CDF888
:10367000209009F0B3FA4146201D05F0D1FC3846F0
:1036800067224C21FFF723FBD4F84821C4F878A126
:1036900039462846D2F88420A4F87C61904795E802
:1036A000070004F5C27C8CE8070004F51072C4F82A
:1036B00090213846A4F8406209F070FA032308A963
:1036C0003846ADF82430CDF8209009F087FA394615
:1036D000201D05F0A5FC00987F224C21FFF7F7FA8A
:1036E000D4F894210099D2F88420C4F8C4A12846C3
:1036F000A4F8C861904795E8070004F5E87787E8E3
:10370000070004F515720098C4F8DC21A4F854628F
:1037100009F044FA02220098ADF8242008A9CDF857
:10372000209009F05BFA0099201D05F079FC5846BD
:1037300097224C21FFF7CBFAD4F8E021C4F810A26D
:1037400059462846D2F88420A4F81462904795E898
:10375000070004F51A7304F5077787E80700C4F833
:1037600028325846A4F8686209F018FA012308A91B
:103770005846ADF82430CDF8209009F02FFA201DDE
:10378000594605F04DFC20460BB0BDE8F08F00BF58
:10379000505B020824620208385B0208713400089A
:1037A0001C58020870477047704770477047704751
:1037B000704730B4C26844685510034604EB620099
:1037C000D20748BF62599B6830BC48BFD3581847DE
:1037D0000346406830B19A681AB9D86800F0010011
:1037E00070470120704710B5102104461EF0B7FF46
:1037F000204610BD10B54FF4F27104461EF0AFFF25
:10380000204610BD00F16C03994270B504460D4688
:1038100003D10CF0EBF8FEF75DFE04F1B4039D421A
:1038200003D123682046DB6A984704F1FC039D42DC
:1038300003D1236820461B6B984704F5A2739D4271
:1038400003D1236820465B6B984704F5C6739D42FD
:1038500005D1236820469B6BBDE87040184770BDBA
:103860002DE9F04F044685B00EF092F9754B2360B8
:10387000754B0025C4E910354FF4807304F16C08D2
:10388000A4F86430FF2304F1B40B84F86630C4E973
:103890001255C4E91455C4E91655E5632566A566B5
:1038A000404609F0E3FC04F1FC0A584609F0DEFC4E
:1038B000504609F0DBFC04F5A2731846009309F0AA
:1038C000D5FC04F5C6731846019309F0CFFC5F4B95
:1038D000C4E975345E4B04F140072A46C4E97735E4
:1038E00029463846FFF7F3F93846F021FDF726FD63
:1038F00038464FF4A071FDF723FD4FF07F43A366D8
:103900003946201D05F08CFB404628226621FFF732
:10391000DEF9052303AA02A9ADF8083040460623C4
:10392000ADF80C3009F0B4F90B23A4F8A4304FF033
:10393000FF3604F5EA774046FFF790FC4146201D2C
:10394000C4E92A66C4F894704FF0080905F068FBD2
:10395000294658466E22FFF7BAF94FF007080DEBDB
:10396000090103AA5846ADF80880ADF80C9009F09B
:103970008FF90A22A4F8EC205846FFF76FFC59464D
:10398000201DC4E93C66C4F8DC7005F049FB2946FB
:103990005046A022FFF79BF90DEB090103AA504600
:1039A000ADF80880ADF80C9009F072F90922A4F87E
:1039B00034215046FFF752FC5146201DC4E94E66A3
:1039C000C4F8247105F02CFB00982946D222FFF799
:1039D0007EF903AA0DEB09010098ADF80880ADF857
:1039E0000C9009F055F90098A4F87C91FFF736FC8B
:1039F0000099C4F86C71201DC4E9606605F010FBE5
:103A0000019829464FF48272FFF761F903AA0DEB82
:103A100009010198ADF80880ADF80C9009F038F96B
:103A20000198A4F8C481FFF719FC201DC4E972664F
:103A30000199C4F8B47105F0F3FA204605B0BDE869
:103A4000F08F00BF9C5B020824620208845B0208BE
:103A5000053800087047000030B5164D2C6814F08A
:103A600001048FB0BFF35B8F20D128461EF079FE92
:103A7000E0B13F230993104B0893104B10491148B4
:103A80000A940122CDE906430423CDE903320A2337
:103A90000093CDE90B44CDE901440594FFF778FB91
:103AA00009481FF0B7FD28461EF067FE05480FB015
:103AB00030BD00BFFC2B00200876020814760208F7
:103AC00060740208002C0020553A0008704700007E
:103AD00030B5174D2C6814F001048FB0BFF35B8F25
:103AE00022D128461EF03DFEF0B13F230993114B31
:103AF0000893114B07930123CDE905430493042355
:103B0000CDE9024314230D4900931C221823CDE96B
:103B10000B440B480A940194FFF73AFB09481FF045
:103B200079FD28461EF029FE05480FB030BD00BFC4
:103B30002C2C00200C7602081876020870740208FB
:103B4000302C0020CD3A00087047000030B5164DEB
:103B50002C6814F001048FB0BFF35B8F20D128468E
:103B60001EF0FFFDE0B13F230993104B0893104B6B
:103B7000104911480A940122CDE906430423CDE9F6
:103B8000033228230093CDE90B44CDE90144059489
:103B9000FFF7FEFA09481FF03DFD28461EF0EDFD37
:103BA00005480FB030BD00BF5C2C00201076020825
:103BB0001C760208F8750208602C0020493B0008BA
:103BC00000207047002070470EB403B503AB0021FE
:103BD00053F8042B01930CF091FF02B05DF804EB55
:103BE00003B070470CB407B504AB53F8042B019332
:103BF0000CF084FF03B05DF804EB02B070470000E6
:103C0000436C10B5044673B3038F2BB9184B194A94
:103C1000C52119481FF0E0FCC38E00EB43035B8C09
:103C20000BB30EF0BAFE238F012B03D8134B144AAB
:103C3000CB21EEE7E28E531C9BB2092B194688BFBD
:103C4000A3F10A0104EB410140F63F10498C814287
:103C500009D10A2B04EB420228BF002304EB4303E3
:103C6000508C588451842046BDE810400EF098BD19
:103C7000B6510208BF5102086A520208B452020843
:103C8000C25202080EF053BD10B586B002AC84E8F3
:103C900006001A460AAB05930193099B009321463F
:103CA000089B0BF041FA06B010BD000038B518BBF8
:103CB000124B13481C681349B4B1226822440260B5
:103CC000626822440A60A26814440F4B00221A80E2
:103CD00000F038F8054600F033F80C4B1C600C4B34
:103CE0001D600C4B188007E00B4B03600B4B0B6007
:103CF0000B4B1C68002CE8D138BD00BF982C00206D
:103D0000902C00208C2C0020942C00206C3A012058
:103D1000743A0120703A0120547602082076020895
:103D200020770208044B1B6853F82100034B1B68E3
:103D300003EB4000704700BF8C2C0020902C00202B
:103D40000D207047004870479C2C002010B5FFF7ED
:103D5000BFFE044C2060FFF7F9FE6060FFF77CFEB9
:103D6000A06010BD9C2C002010B5002404600C60E5
:103D700014601C6010BD704710B54FF4AE7104465E
:103D80001EF0EDFC204610BD10B50446D0F85801D9
:103D900000F0FFF92046BDE810400BF0A9BE00007E
:103DA00010B50446FEF762FB014B2360204610BDB0
:103DB000E05B0208704704387047704710B5202157
:103DC00004461EF0CCFC204610BDA0F10400F5E72F
:103DD000002310B58360074B036018334360C16054
:103DE00004460BF003FED0F858312361221D1A60FF
:103DF000204610BD345C020838B50446C06800F5A2
:103E00008053D3F87C24032A30D8DFE802F002255F
:103E10002A2FD3F8802402F2554210F82220914232
:103E20002ED1D3F85431DD3B002BB8BF5B420C2BB5
:103E300021DD0D3B0B2B95BFA369E36901330133F2
:103E400099BFA3610121E361022100F0BBF8E068A2
:103E5000BDE8384000F051B9D3F8802402F287421F
:103E6000DBE7D3F8802402F2B942D6E7D3F8802406
:103E700002F2EB42D1E76369013363610021E4E7B9
:103E800038BD0369586970477047C06B0021FFF760
:103E9000B3BFC06B0121FFF7AFBF000010B5034BEC
:103EA00003600446FEF78CFE204610BD5C5C0208F1
:103EB00010B50446FFF7F2FF20464FF4A5511EF05F
:103EC0004EFC204610BD00002DE9F843074607F5DB
:103ED0008054FEF76FFF4FF0C8092B4B3B60022563
:103EE00001264FF003084A46002104F5AC701FF08C
:103EF0007AFD4A46C4E95765C4E95B56C4F8648153
:103F0000C4F87481002107F591501FF06CFD4A46FA
:103F1000C4F82462C4F82C52C4F83482C4F83C5269
:103F2000002104F53A701FF05EFDC4E9BA65C4E9EA
:103F3000BC85C4E9C065C4F8F8624A46002104F5AE
:103F40006C701FF050FD0823C4F878340023C4E9D6
:103F5000EC58C4E9F065C4F8B863C4F8CC83C4F87D
:103F6000803484F88434C4F88834C4F88C34C4F8B9
:103F70009034C4F89434C4F89834C4F89C34C4F829
:103F800054313846BDE8F8835C5C0208044A4FF4BB
:103F90007F431380034A1380034B00221A8070472B
:103FA000AC2C0020AA2C0020A82C002010B5044620
:103FB000FEF7B1FDE06BFFF764FF04F58054C4F831
:103FC0007C0410BD012970B504461DD002291FD004
:103FD00011BB134B1D88134B134A04F548760A2175
:103FE00030460FF083FAC4F81C6304F5357630468A
:103FF00008F0D4FD0123C4F8045384F8F9323046A4
:10400000BDE870400CF0A4BE084B1D88084BE3E7E8
:10401000084B1D88084BDFE700252B46DCE700BF77
:10402000AC2C002094530208A6530208AA2C0020AE
:104030009C530208A82C0020A153020838B500F5B3
:104040008054054694F8843400222BBBD4F8803485
:10405000D4F878148B4205DB0BF0C8FCBDE838407F
:10406000FEF768BAD4F87C1403290AD8DFE801F017
:104070000233393F5A1CC4F8802403F2564315F822
:1040800023200023C2EB02129200C4F85431012312
:10409000C4F89C2484F88434D4F85431D4F89C2493
:1040A0000333C4F85431F92BA5F820224FF0010254
:1040B000A5F8223285F8412208DD02212846FFF7C3
:1040C00081FF002385F8413284F88434281DBDE83F
:1040D00038400CF03DBE5A1CC4F8802403F59163AF
:1040E000CDE75A1CC4F8802403F2BA43C7E75A1C30
:1040F000C4F8802403F2EC43C1E700F580520023AA
:1041000080F8413282F8843400F507700CF020BE4C
:10411000704704387047704710B5102104461EF0F0
:104120001EFB204610BDA0F10400F5E700228260CE
:10413000024A026018324260C1607047A05C020807
:104140007047000010B5034B03600446FFF751F8B9
:10415000204610BDC85C020810B50446FFF7F2FF08
:104160002046F0211EF0FBFA204610BD10B5044693
:10417000FFF7B6F8014B2360204610BDC85C02086B
:10418000FFF738B80022C0E90022C0E9022202612C
:10419000704770474068704780687047C0687047D4
:1041A00000697047704704387047704710B5102198
:1041B00004461EF0D4FA204610BDA0F10400F5E735
:1041C000F7B504468068FFF7E5FF0546A068FFF7EE
:1041D000E3FF0646A068FFF7E1FF0746A068FFF788
:1041E000DFFF0090E0683B463246294600F030F899
:1041F00003B0F0BD00228260024A026018324260C1
:10420000C1607047FC5C02087047000010B5034BAA
:1042100003600446FFF701F9204610BD245D020843
:1042200010B50446FFF7F2FF20464FF437711EF039
:1042300096FA204610BD000010B50446FFF752F96B
:10424000014B2360204610BD245D0208FFF7E6B84D
:104250002DE9F843044600F5237517461E46254A06
:10426000DDF820800B4628460A210FF03FF9C4F8FC
:10427000445104F1FC05284608F090FC28461E4DE8
:1042800004F528790CF064FD3B462A460A2104F522
:10429000A47748460FF02AF9C4F89091384608F000
:1042A0007DFC384604F52D770CF052FD33462A4646
:1042B0000A2104F5CA7638460FF018F9C4F8DC7103
:1042C000304608F06BFC304604F532760CF040FDC9
:1042D00043462A460A2130460FF008F904F5F074E7
:1042E000A664204608F05AFC2046BDE8F8430CF0CE
:1042F0002FBD00BFA9530208AE530208704704380F
:104300007047704710B5142104461EF028FA204665
:1043100010BDA0F10400F5E7002310B58360074B42
:10432000036018334360C16004460BF05FFBD0F8B4
:1043300058312361221D1A60204610BD585D0208C5
:10434000036959617047704708B5C06B0021FFF7DA
:10435000F7FF0BF04BFBBDE80840FEF7DBB808B5F4
:10436000C06B0121FFF7ECFF0BF040FBBDE80840FC
:10437000FEF7D0B808B5C06B0221FFF7E1FF0BF0E4
:1043800035FBBDE80840FEF7C5B808B5C06B032192
:10439000FFF7D6FF0BF02AFBBDE80840FEF7BAB8DE
:1043A00010B5034B03600446FFF701FA204610BD29
:1043B000805D020810B50446FFF7F2FF20464FF477
:1043C000F2711EF0CCF9204610BD000010B5044675
:1043D000FFF746FA014B2360204610BD805D0208BE
:1043E000FFF7E6B9F02070474FF4A070704729201E
:1043F000FDF726BC2820FDF723BC08B5FDF7F4FB2C
:10440000CA20FDF71DFCC320FDF7FEFB0820FDF7C9
:10441000FBFB5020FDF7F8FBCF20FDF711FC00203F
:10442000FDF7F2FBC120FDF7EFFB3020FDF7ECFBC1
:10443000ED20FDF705FC6420FDF7E6FB0320FDF70A
:10444000E3FB1220FDF7E0FB8120FDF7DDFBE82018
:10445000FDF7F6FB8520FDF7D7FB0020FDF7D4FB29
:104460007820FDF7D1FBCB20FDF7EAFB3920FDF7E3
:10447000CBFB2C20FDF7C8FB0020FDF7C5FB34204B
:10448000FDF7C2FB0220FDF7BFFBF720FDF7D8FBCD
:104490002020FDF7B9FBEA20FDF7D2FB0020FDF755
:1044A000B3FB0020FDF7B0FBB120FDF7C9FB0020F6
:1044B000FDF7AAFB1B20FDF7A7FBB620FDF7C0FB0D
:1044C0000A20FDF7A1FBA220FDF79EFBC020FDF70F
:1044D000B7FB1020FDF798FBC120FDF7B1FB1020C2
:1044E000FDF792FBC520FDF7ABFB4520FDF78CFBEC
:1044F0001520FDF789FBC720FDF7A2FB9020FDF7F3
:1045000083FB3620FDF79CFBC820FDF77DFBF220E6
:10451000FDF796FB0020FDF777FBB020FDF790FB41
:10452000C220FDF771FBB620FDF78AFB0A20FDF7DC
:104530006BFBA720FDF768FB2720FDF765FB042038
:10454000FDF762FB2A20FDF77BFB0020FDF75CFBFB
:104550000020FDF759FB0020FDF756FBEF20FDF78B
:1045600053FB2B20FDF76CFB0020FDF74DFB0020DB
:10457000FDF74AFB0120FDF747FB3F20FDF744FB19
:10458000F620FDF75DFB0120FDF73EFB0020FDF767
:104590003BFB0620FDF738FB2C20FDF751FBC82024
:1045A000FDF79CFB2620FDF74BFB0120FDF72CFBC4
:1045B000E020FDF745FB0F20FDF726FB2920FDF746
:1045C00023FB2420FDF720FB0C20FDF71DFB0E2014
:1045D000FDF71AFB0920FDF717FB4E20FDF714FB32
:1045E0007820FDF711FB3C20FDF70EFB0920FDF7BD
:1045F0000BFB1320FDF708FB0520FDF705FB17203B
:10460000FDF702FB1120FDF7FFFA0020FDF7FCFA91
:10461000E120FDF715FB0020FDF7F6FA1620FDF767
:10462000F3FA1B20FDF7F0FA0420FDF7EDFA112054
:10463000FDF7EAFA0720FDF7E7FA3120FDF7E4FA83
:104640003320FDF7E1FA4220FDF7DEFA0520FDF701
:10465000DBFA0C20FDF7D8FA0A20FDF7D5FA28205E
:10466000FDF7D2FA2F20FDF7CFFA0F20FDF7CCFA95
:104670001120FDF7E5FAC820FDF730FB2920FDF7F2
:10468000DFFABDE808402C20FDF7DABA08B5FDF7DF
:10469000ABFA0321D320FDF7EFFA80B208BD10B5C5
:1046A000C4B2022203212046FDF754FA0A20FDF786
:1046B00099FA204600220321FDF74CFABDE810408C
:1046C0000220FDF78FBA38B50446E4B2FDF740FA90
:1046D00000212046FDF756FA012105462046FDF748
:1046E00051FA40EA052080B238BD10B5C4B240216D
:1046F0002046FDF747FA030607D54C212046FDF773
:1047000041FA003818BF012010BD01224B2120467C
:10471000FDF720FA204600224B21FDF71BFA00206E
:10472000F2E773B50423C4B20E461546D7210DEB4C
:1047300003022046FDF740FA019B1BBA1A0DC3F392
:104740000B23328020462B8001224B21FDF702FAF9
:1047500000224B212046FDF7FDF902B070BD00009C
:1047600010B50A4A1378984204460DD05178884211
:104770000AD00BB141B90123D454FDF7E9F9204621
:10478000BDE81040FFF78BBF10BD00BFAE2C00206E
:1047900010B5C4B209212046FDF7F4F940F001023A
:1047A000D2B220460921BDE81040FDF7D3B910B5BB
:1047B000C4B209212046FDF7E5F9092100F0FE0207
:1047C0002046BDE81040FDF7C5B938B5C4B20D4666
:1047D00020460A21FDF7D6F940EA0502D2B220466A
:1047E0000A21BDE83840FDF7B5B910B50446FDF71C
:1047F000B0F920461F21FFF7E8FF2046BDE8104032
:10480000FFF7C6BF38B5C4B20D4620460A21FDF7F2
:10481000B9F920EA0502D2B220460A21BDE83840A3
:10482000FDF798B910B50446FFF7C1FF20461F21D8
:10483000BDE81040FFF7E6BF10B5C0B20C460B2133
:10484000FDF7A0F9204010BD1F21FFF7F5BF0A4674
:10485000C0B20B21FDF77EB91F21FFF7F8BF38B5B5
:10486000C4B20D4620461721FDF78CF920EA050257
:10487000D2B220461721BDE83840FDF76BB970B5BC
:10488000C4B2064604212046FDF77CF9042100F05D
:10489000FB0205462046FDF75DF93046F021FFF7A3
:1048A000DEFF05F0F80220460421FDF753F9492206
:1048B00020212046FDF74EF90220FDF793F920460E
:1048C00001222121FDF746F920469A224121FDF7D8
:1048D00041F9204601224A21FDF73CF920460122F8
:1048E0004B21FDF737F9204600224B21FDF732F925
:1048F000204601225621FDF72DF92046012258219C
:10490000FDF728F9204601224021FDF723F9204632
:10491000FF220B21FDF71EF9BDE870400220FDF7D4
:1049200061B90000054BD3F8882042F47002C3F847
:1049300088204FF000629A60704700BF00ED00E0F1
:1049400008B50B4B1A6842F400721A601A6842F4F8
:1049500080621A601A6842F480721A60032000F0C4
:104960002FF80020FDF7FCFBFDF7C6F9002008BD7D
:10497000003C0240034A044B11681B780B4413604F
:10498000704700BFB02C002078000020014B186851
:10499000704700BFB02C002038B50446FFF7F6FF83
:1049A000631C1CBF054B1B78054618BFE418FFF7B6
:1049B000EDFF431BA342FAD338BD00BF78000020AF
:1049C0000749CA6822F4E0620302120403F4E063B8
:1049D000120C134343F0BF6343F40033CB607047C2
:1049E00000ED00E0164B30B5DC68C4F30224C4F1DE
:1049F0000703251D042B28BF0423062D4FF0FF3588
:104A00008CBF033C002405FA03F321EA0303A5400D
:104A100022EA0502A340002843EA0203ACBF00F1EA
:104A20006040084A4FEA0313B8BF00F00F00DBB242
:104A3000AABF00F56140135480F8003330BD00BFB9
:104A400000ED00E014ED00E0002807DB044A410916
:104A5000012300F01F00834042F82130704700BF5F
:104A600000E100E010B5044650B1437903F0FF02C5
:104A700013B90271FDF760F901236371002010BDC5
:104A80000120FCE710B5044620B390F8393003F05C
:104A9000FF021BB980F83820FDF766F9022384F87D
:104AA0003930236861681A6822F440320A431A6078
:104AB0005A6BA16822F007020A435A631A6CE16834
:104AC0006FF30D020A431A6400200123E06384F8A7
:104AD000393010BD0120FCE770477047036870B59E
:104AE0005E681D68F207044614D5E90512D51A68F8
:104AF00022F480721A60C26B42F00102C26301228A
:104B00009A60042380F83930002380F838304369F4
:104B100003B19847B20616D5AB0414D523681A68BA
:104B200022F400521A6020229A60E36B43F00203E1
:104B3000E363042384F83930002384F83830636950
:104B40000BB120469847300716D5290514D52368A0
:104B50001A6822F400621A6008229A60E36B43F03C
:104B60000403E363042384F83930002384F83830E5
:104B700063690BB12046984772070BD56B0509D5C1
:104B800023681A6822F480621A6004229A60204620
:104B9000FFF7A2FFB00714D5A90512D523681A683C
:104BA00022F400721A6002229A60E36BE36301232D
:104BB00084F83930002384F8383023690BB120465B
:104BC0009847F20613D5EB0411D523681A6822F42E
:104BD00080521A6010229A60E36BE363012384F829
:104BE0003930002384F838302046FFF776FF70BD57
:104BF000F0B590F83820012A03464FF002002BD080
:104C0000012283F8382083F8390003EB0112D2E93E
:104C10000740556A174F44EA0040093C012C9CBFED
:104C200005F07F4210434FEA01161A6888BF40EA38
:104C3000056091B9516A394001435162012C99696B
:104C4000916103D8596A21F07F41916201220020CD
:104C500083F8392083F83800F0BDD1693940014329
:104C6000D1619919012C896911619CBF25F07F459B
:104C70001562EBE7F0FFFC002DE9F74FDFF8BC9180
:104C80006C4A00230D6801249C4004EA0506AC43ED
:104C900040F0B7804D68032705F003044FEA43084E
:104CA00007FA08FC671E012F6FEA0C0C34D88768DE
:104CB00007EA0C0ECF6807FA08F747EA0E07876085
:104CC000476827EA060EC5F300179F4047EA0E071C
:104CD0004760C76807EA0C0E8F6807FA08F747EACB
:104CE0000E07022CC76019D14FEAD30A00EB8A0ADB
:104CF00003F0070BDAF820704FEA8B0B4FF00F0E22
:104D00000EFA0BFE27EA0E0E0F6907FA0BF747EAB9
:104D10000E07CAF8207001E0032CDAD1076804FA04
:104D200008F407EA0C073C4315F4403F046068D0E0
:104D300000240194D9F8444044F48044C9F8444024
:104D4000D9F8444023F0030707F1804704F4804476
:104D500007F59C37019403F0030C019CD7F808E099
:104D60004FEA8C0C0F2404FA0CF42EEA040E324C99
:104D7000A0424DD004F58064A0424BD004F580647D
:104D8000A04249D004F58064A04247D004F5806475
:104D9000A04245D004F58064A04243D004F580646D
:104DA000A04241D004F58064A0423FD004F5806465
:104DB000A0423DD004F58064A04214BF0A24092417
:104DC00004FA0CF444EA0E04BC609468F74315F44A
:104DD000801F0CBF3C4034439460D46815F4001F1E
:104DE0000CBF3C403443D460546815F4003F0CBF02
:104DF0003C40344354601468ED0354BF3C4034439A
:104E000014600133102B7FF43DAF03B0BDE8F08F89
:104E10000024D5E70124D3E70224D1E70324CFE718
:104E20000424CDE70524CBE70624C9E70724C7E718
:104E30000824C5E7003C0140000002400038024061
:104E40000369194214BF0120002070470AB1816133
:104E500070470904FBE7436901EA030221EA030101
:104E600041EA02418161704701684B6913F4806334
:104E70004FF0000210D06FF480634B612023026377
:104E800080F83D3080F83E20036C80F83C2043F0F1
:104E90000403036401207047184670472DE9F84663
:104EA00006460F4691461D464FEA114A3368BAF14D
:104EB000010F0CBF5C699C6927EA0404A4B2B4FA30
:104EC00084F46409A14501D0002025E06A1CEED0DD
:104ED000FFF75CFD089BC01AA84201D8002DE5D160
:104EE0003368BAF1010F0CBF5B699B6927EA0303C2
:104EF0009BB2B3FA83F35B099945D7D100232022F3
:104F0000336386F83D2086F83E30326C86F83C30BC
:104F100042F0200232640120BDE8F8862DE9F0411C
:104F200004460F46164698462568686927EA000039
:104F300080B2C0B16B695A0517D52B6843F4007372
:104F40002B606FF480636B6120220023236384F85D
:104F50003D2084F83E30236C43F004032364002397
:104F600084F83C300120BDE8F081731CDDD0FFF7F0
:104F70000DFDA0EB0800B04201D8002ED4D123686B
:104F80005A6927EA020292B2002ACDD000232022D9
:104F9000236384F83D2084F83E30236C1343DDE71F
:104FA00070B504460D46164623685B691B0601D59D
:104FB00000201EE02046FFF757FFC8B96A1CF3D057
:104FC000FFF7E4FC801BA84201D8002DECD1236838
:104FD0005B6913F08003E7D12022236384F83D202E
:104FE00084F83E30226C84F83C3042F02002226487
:104FF000012070BD2DE9F0431546026885B0DDE95A
:105000000C789946136843F4807313600E463B4650
:10501000CDF8008000224FF001110446FFF73EFF5B
:10502000236838B11B68DB0502D54FF40073236495
:10503000032620E006F0FE061E611A4943463A4662
:105040002046FFF76BFFA8B9236803905A690392C3
:105050009B690393424639462046039BFFF7A0FF16
:10506000064660B1236C042B01BF2268136843F429
:10507000007313600126304605B0BDE8F083B9F136
:10508000010F236802D1EDB21D61F4E72A0A1A610B
:10509000394642462046FFF783FF0028E2D12368C5
:1050A000F1E700BF020001002DE9FF479A460368BF
:1050B00015461A6842F480621A601A68DDE90C78B5
:1050C00042F480721A600E463B46CDF80080002202
:1050D0004FF001110446FFF7E1FE236838B11B6869
:1050E000DB0544BF4FF400732364032021E05FFA23
:1050F00086F906F0FE061E612B4943463A462046D5
:10510000FFF70CFFA0B9236803905A6903929B69CB
:105110000393424639462046039BFFF741FF58B1AF
:10512000236C042B01BF2268136843F400731360DF
:10513000012004B0BDE8F087BAF1010F23681AD14D
:10514000EDB242461D6139462046FFF729FF02466F
:105150000028E5D121680B6843F480730B6020467A
:10516000CDF800803B464FF00111FFF797FE226813
:1051700060B11368B4E72A0A1A61394642462046EC
:10518000FFF70EFF0028CBD12368D9E749F00103D0
:105190001361054943463A462046FFF7BFFE0038F3
:1051A00018BF0120C5E700BF0200010070B504462A
:1051B0000D46164623685B695B0701D500201EE09B
:1051C0002046FFF751FEC8B96A1CF3D0FFF7DEFB9B
:1051D000801BA84201D8002DECD123685B6913F035
:1051E0000403E7D12022236384F83D2084F83E3075
:1051F000226C84F83C3042F020022264012070BD11
:1052000070B504460D46164621684B6913F04003FD
:1052100001D0002011E04A69D2060FD56FF01002CC
:105220004A612022236384F83D2084F83E30236CB9
:105230002364002384F83C30012070BDFFF7A6FBF7
:10524000801BA84201D8002DDED123685B6913F0D2
:105250004003D9D12022236384F83D2084F83E30D6
:10526000236C1343E4E7000070B5044608B901203D
:1052700070BD90F83D3003F0FF021BB980F83C2070
:10528000FCF794FD242384F83D3023681A6822F04B
:1052900001021A601A6842F400421A601A6822F485
:1052A00000421A6000F0A8FE3F4B65689D4294BF23
:1052B0003E4B3F4B98428CBF00230123002BD6D19D
:1052C0002268394E51683B4BB0FBF3F321F03F01AC
:1052D0001943B542516088BF4FF49676116A88BF72
:1052E000734321F03F0184BF4FF47A76B3FBF6F3AA
:1052F00001330B431362D169431E2B4821F44F4104
:10530000854221F0FF0132D86D0040F6FC70B3FBFE
:10531000F5F30133034242D0C3F30B031943D161C8
:10532000D4E907301168034321F0C0010B43136037
:105330009168D4E9030321F40341034321F0FF0101
:105340000B439360D4E90530D168034321F0FF019A
:105350000B43D360136843F0010313600020202344
:10536000206484F83D30206384F83E0080E7A06824
:1053700050B905EB4505B3FBF5F30133C3F30B035C
:105380007BB143F40043C9E719206843B3FBF0F352
:105390000133C3F30B0323B143F44043BEE70423BB
:1053A000BCE70123BAE700BFA08601007F841E008E
:1053B000FF083D0040420F002DE9F743044699469F
:1053C0000C9E0F469046FFF7E1FA94F83D30202BF3
:1053D000054603D0022003B0BDE8F08300903C49AD
:1053E000192301222046FFF759FD0028F2D194F835
:1053F0003C30012BEED02068012384F83C30036858
:10540000D9075EBF036843F001030360036823F418
:1054100000630360212384F83D30402384F83E304C
:10542000002323640A9B6362BDF82C306385638D7F
:105430002385284BE3624246CDE900654B46394659
:105440002046FFF7D7FD00282AD00120C3E7FFF749
:10545000A7FD40B1236C042B01BF2268136843F4FD
:1054600000731360F1E7636A27681A4612F8011B9C
:1054700039616262628D218D013A92B262857A69E8
:10548000481E80B2520720850AD548B15A783A6141
:1054900002336362638D013B02399BB221856385D0
:1054A000238D2A4631462046002BD0D1FFF77EFEC1
:1054B0000028CFD12268136843F4007313602023BF
:1054C00084F83D3084F83C0084F83E0083E700BF58
:1054D000020010000000FFFF2DE9F043044687B0F2
:1054E0009946109F0D469046FFF750FA94F83D30CC
:1054F000202B064604D00225284607B0BDE8F083DD
:1055000000907A49192301222046FFF7C7FC0028A2
:10551000F1D194F83C30012BEDD02068012384F8C0
:105520003C300368DB075EBF036843F001030360A0
:10553000036823F400630360222384F83D30402392
:1055400084F83E30002323640E9B6362BDF83C3038
:105550006385638D2385664BE3622946CDE900763A
:105560004B4642462046FFF79FFD054608B1012500
:10557000C2E7228D2368B2B902905A6902929A69F1
:105580000292029A1A6842F400721A60DFF864818B
:10559000238D002B2CD1202284F83D2084F83C3030
:1055A00084F83E30A8E7012A0AD11A6822F4806202
:1055B0001A6003905A6903929A690392039AE1E789
:1055C000022A0ED11A6822F480621A601A6842F424
:1055D00000621A6004905A6904929B690493049BC8
:1055E000D4E705905A6905929B690593059BCDE721
:1055F000032B56D8012B15D1324639462046FFF7EA
:10560000FFFD0028B3D123681A69636A1A70636AC0
:1056100001336362238D013B2385638D013B9BB284
:105620006385B5E7022B00963B464FF000024146EA
:10563000204619D1FFF732FC002898D123681A6858
:1056400042F400721A601A69636A1A70626A531C23
:105650006362238D013B2385638D013B9BB2638590
:1056600023681B695370D2E7FFF718FC0246002835
:105670007FF47DAF2368196821F48061196019698E
:10568000636A1970636A01336362238D013B23856A
:10569000638D013B9BB26385414600963B462046A5
:1056A000C8E7324639462046FFF7AAFD00287FF4B6
:1056B0005EAF23681A69636A1A70628D616A013A83
:1056C00092B24B1C628522686362238D5069013B54
:1056D0009BB2400723857FF55BAF032B02BF1368A6
:1056E00023F48063136013694B7090E7020010008D
:1056F0000000FFFF0400010010B590F83D30202BA2
:10570000DCB216D1242380F83D3003681A6822F0F9
:1057100001021A605A6A22F010025A625A6A114350
:1057200059621A6842F001021A6080F83D40002078
:1057300010BD0220FCE730B590F83D30202BDCB2E4
:1057400016D10268242380F83D30136823F001034A
:105750001360556A4FF6F0732B400B439BB25362B4
:10576000136843F00103136080F83D40002030BD12
:105770000220FCE70068D1F800C0D201843283180F
:105780002DE9F043C6685D684C68D1F8189005F4BF
:1057900070455D60C5680CF10107C5F30B45C6F3A4
:1057A0000B4626443D4445EA06455D60C668CD6823
:1057B000C6F30A062E449D6805F470459D60C768CF
:1057C0008D68C7F30A0701353D4445EA06459D60EB
:1057D0001D690E6925F007051D614FF0000E1E6161
:1057E00091F832709D6991F83180C3F818E091F812
:1057F000305045EA096545EA082545EA07459D61B7
:105800005D6925F0FF055D614D695D61DD6925F428
:10581000E06525F00705DD61D1E907573D43DD610E
:105820009D6A4D6AC3F828E0072E9D629CBF0E4D0D
:10583000AE5DDD6A05F0E025DD6288BF01268D6A78
:10584000C96AA4EB0C0474437543033444EA054469
:10585000DC621C6B6FF30A041C631963835843F00A
:1058600001038350BDE8F083D45D020838B50446D7
:10587000002863D090F8A13003F0FF021BB980F834
:10588000A020FCF7EFFA022384F8A13023689A697C
:1058900022F070429A61D4E901200243E0689969DC
:1058A0000243206902430A439A619A682449606965
:1058B0000A409A609A6842EA0042A06902439A60EC
:1058C000DA68E0690A40DA60DA6842EA0042206A8F
:1058D0000243DA601A69606A0A401A611A6942EA88
:1058E0000042A06A02431A615A690A405A615A6921
:1058F000E16A42EA0142216B0A435A61DA6A94F88A
:10590000350094F8361002F07F42DA62DD6A94F8CE
:1059100034202A4342EA002242EA0142DA625A6B08
:1059200042F006025A639A6942F001029A6100202D
:105930000123C4F8A40084F8A13038BD0120FCE79D
:1059400000F800F070477047036870B59E6B5D6BA0
:105950007207044614D5690712D55A6B22F0040267
:105960005A630422DA63D0F8A43043F00103C0F88C
:10597000A430002380F8A12080F8A030FFF7E2FFD8
:10598000B20716D5AB0714D523685A6B22F0020272
:105990005A630222DA63D4F8A4301343C4F8A43063
:1059A000042384F8A130002384F8A0302046FFF7B8
:1059B000C9FFF00710D5E9070ED523685A6B22F00E
:1059C00001025A630122DA63002384F8A12084F8DB
:1059D000A0302046FBF724FE320711D52B070FD548
:1059E00023685A6B22F008025A630822DA63012303
:1059F00084F8A130002384F8A0302046FFF7A3FFED
:105A000070BD2DE9F04190F8A030012B06460F46FD
:105A100094464FF002001FD04FF0010886F8A08096
:105A200086F8A10034240D4604FB02640FCD3834FF
:105A30000FC40FCD0FC40FCD0FC42B6823603046A9
:105A400062463946FFF796FE33680020C3F824808B
:105A500086F8A18086F8A000BDE8F08190F8A0202B
:105A6000012A03464FF0020012D01A6883F8A10001
:105A7000506B20F00100506306480164516B41F007
:105A8000010151630020012283F8A12083F8A000C6
:105A9000704700BF0068014037B500230193184BE1
:105AA000184D1A6C42F080521A641B6C03F080533C
:105AB0000193019B144B01221A64FEF767FF044611
:105AC0006B68DA030BD5104B0E4D01225A64FEF7BA
:105AD0005DFF04466B689B030AD5002006E0FEF7D5
